:0E00000075A00011677C057D837590F0114D91
:0F000E00759000D290D291D292D293114DE5907D
:0F001D00540FFA114D7590F0114D759000D2905F
:10002C00D291D292D293114DE590540FFBEAC42B8E
:0E003C00F562ED1178E562119811870DDCBFB9
:10004A0002000078FF79197F01DFFED9FCD8F62279
:0F005A0078FF79017F01DFFED9FCD8F6227438D8
:0F0069001178740C1178740111787406117822D3
:0F007800F5A0C280C281D282114DC282114D22E9
:10008700F5A0D280C281D282114DC282114D114D8D
:0F00970022540FFB940A5006EB24300200ABEB0F
:0600A60024370200AB222A
:00000001FF
