:0F00000002020074381114740C111474011114DD
:0F000F007406111422F5A0C280C281D28211346E
:0F001E00C282113422F5A0D280C281D282113465
:10002D00C2821134113422780A79FFD9FED8FA220E
:0F02000075A0001134113411031134113411346D
:10020F007485111411347447112311347486111429
:10021F00113474551123113474871114113474521D
:10022F00112311347488111411347456112311349D
:10023F00748911141134744911231134748A1114EF
:10024F00113474521123113474C5111411347445BF
:10025F001123113474C61114113474451123113440
:02026F0080FE0F
:00000001FF
