:040000000200513277
:03000B0002021DD1
:0100130032BA
:01001B0032B2
:0100230032AA
:01002B0032A2
:01003300329A
:01003B003292
:01004300328A
:03004B000201FDB2
:1200AA00E4F508F509F50AF50BF50FC200C20102004E8D
:03004E000200BCF1
:2000BC0075A0005390EF5380F812022612025712024475140D90075475F0801202AE30011C
:2000DC00FD750F00C201C29475C50110000280FB75C5F03000FD7403550CF50DC20075C575
:2000FC00003000FD850C0EC200D294AF0D7E00AC0E7D00EC2EF508ED3FF509E508250AF52D
:20011C000AE509350BF50B050F74F6250F50B7850A82850B83120496AC82AD83AEF0FFE423
:20013C00C0E0C0E074C8C0E07442C0E08C828D838EF0EF120526AC82AD83AEF0FFE58124E4
:20015C00FCF5818C828D838EF0EF1204A385820A85830B850B83120496AC82AD83AEF0FFEF
:20017C00C004C005C006C00790400075F04E744012031CAC82AD83AEF0FFE58124FCF581EE
:20019C008C828D838EF0EF1204A385820A85830B75828912027675150A751600850A82851C
:2001BC000B83120605AE8274302EF51175150A751600850A82850B8312066885820A858394
:2001DC000B75150A751600120605AE8274302EF51075140290001075F0401202AE0200DA47
:2001FC0022C007C0D075D000AFC4BF1002800DBF40028008BF800585C50CD200D0D0D007E8
:20021C0032758C3C758AB0D20132D29443C32043C30143C310AFC374F75FF5C343C30443B5
:20023C00C34043B104D2AF22758C3C758AB074F055894401F589D2A9D28C22900064120210
:20025C00FA75823812027675820E12027675820112027675828012027622AF82C00712028F
:20027C00DDD0078FA0C280C281D2829000051202FAC2829000051202FA228582A0D280C23F
:20029C0081D2829000051202FAC2829000051202FA22AD82AE83AFF0E51460248D828E8325
:2002BC008FF01205E9FCA3AD82AE838C82C007C006C005120296D005D006D007151480D897
:2002DC002275A0FFC280D281C2829000051202FAD28230A706C282D28280F7C28222AE827A
:2002FC00AF83C3E49E74808FF063F08095F0500F7D05ED14FCFD70FA1EBEFF011F80E322DB
:0E07540054656D703A202020202020204300A4
:20031C001203BFBC00030204F8EF60FA30D502B2D1E583B4FF0302050EE582B4FF03020506
:20033C000E258340072482400B0204F8248314500302050EF582EA8DF0A4A8F0EA8EF0A46C
:20035C0028F8E435F0F9EB8DF0A428E935F0F9E433CA8FF0A429F9EA35F0FAEBF88EF0A4F0
:20037C0029F9EA35F0FAE433FBEC8DF0A429F9EA35F0FAE43BFBE88FF0A42AFAEB35F0FB98
:20039C00E433CCFD8EF0A42AFAEB35F0FBE43CFCED8FF0A42BFBEC35F0FC20E7031203EDA5
:0303BC000204D761
:2003BF00AA82AB83A2F73392D1F5826002D2F7ACF0E58124F9F8E6FD08E6FE0886F008E6A1
:0E03DF00A2F73392D5F5836002D2F7AFF02279
:06008000E4787FF6D8FDD4
:2003ED007804EC7011E58224F8500AF582E4C9CACBFCD8EF22EC7820058220E713D582010F
:13040D0022C3E933F9EA33FAEB33FBEC33FCD8EA1582221C
:20005E007900E94400601B7A00900762780175A000E493F2A308B8000205A0D9F4DAF275DF
:02007E00A0FFE1
:20042000E515451660467A01E51525E0F515E516334012F516E5829515E583951640030A41
:2004400080E6C3E51613F516E51513F515C3E5829515F5F0E58395164005F58385F082C300
:0D046000E51613F516E51513F515DAE12282
:200086007800E84400600A790175A000E4F309D8FC7800E84400600C7900900001E4F0A378
:0400A600D8FCD9FAAF
:20046D007A10E4FBFCE58225E0F582E58333F583EB33FBEC33FCEB9515F5F0EC9516400689
:09048D00FCABF0438201DADD2230
:0D049600AC83AB827A007900748E020644BC
:2004A3001206A0700AE582458345F0700122E430D112F4700BE5F0F47006E58330E70122C9
:1404C30090800022700AE5F07006E58320E70122907FFF226C
:2004D700B98003EA13B34010EA2401FAE43BFBE43CFC50047C800582BC000EBB000BBA0069
:2004F70008E4F5F0F583F58222A2D1E582138CF092F78B838A8222E4F583F58275F080F429
:0F051700A2D11322E4F583F58275F0C0747F2220
:200526001203BF30D502B2D1BF0009BC000302051B02050EBC00030204F8E583B4FF0BE5D1
:2005460082B4FF0302051B0204F8E582B4FF0302050EC395835007247F400B0204F8248049
:2005660014500302050EF582C3ED9AEE9BEF9C40111582C3EA33F9EB33FAEC33FBE433FC1E
:200586008005E4CCCBCAF9C08275F019C3E99DEA9EEB9FEC9400D5F002802D400EE99DF9B6
:2005A600EA9EFAEB9FFBEC9400FCC3B3E833F8E58233F582E58333F583C3E933F9EA33FA16
:2005C600EB33FBEC33FC80C4B3E4F938FAE43582FBE43583FCD082500405827C801203ED82
:0305E6000204EF1D
:0D0051007581201206FBE582600302004E5F
:1C05E90020F71430F6148883A88220F507E6A88375830022E280F7E49322E02221
:20060500C2D5E58330E70DD2D5E4C39582F582E49583F583E51630E70BE4C39515F515E406
:160625009516F51612042030D50BE4C39582F582E49583F58322F8
:20063B00FCABF0AA83A982749EF582C2D1EC30E716D2D1E9F42401F9EAF43400FAEBF434BE
:0D065B0000FBECF43400FC1203ED0204D7A8
:20066800C2D5E58330E70DD2D5E4C39582F582E49583F583E51630E70DB2D5E4C39515F513
:1806880015E49516F51612046D30D50BE4C39582F582E49583F583224D
:2006A0001206FFC3749E95824039790012071130D126E9F42401F582EAF43400F583EBF412
:2006C0003400F5F0ECF43400700AE582458345F0700122E430E70F22EC20E71489828A8331
:1B06E0008BF02230D10AE4F582F583F5F074802274FFF582F583F5F0747F222D
:0406FB0075820022E2
:1206FF00AA82AB83A2F73392D1F5826002D2F7ACF02200
:200711006040F82582500274FFF582E824F8501ECCCBCAF9E4CC24F85014CBCAF9E4CB24F0
:20073100F8500BCAF9E4CA24F8500379002224086010F8C3EC13FCEB13FBEA13FAE913F9A3
:03075100D8F122BA
:00000001FF
